{"abi":[{"type":"constructor","inputs":[],"stateMutability":"nonpayable"},{"type":"function","name":"acceptOwnership","inputs":[],"outputs":[],"stateMutability":"nonpayable"},{"type":"function","name":"deleteManifestCid","inputs":[{"name":"didKey","type":"bytes32","internalType":"bytes32"}],"outputs":[],"stateMutability":"nonpayable"},{"type":"function","name":"deleteManifestCidsBatch","inputs":[{"name":"didKeys","type":"bytes32[]","internalType":"bytes32[]"}],"outputs":[],"stateMutability":"nonpayable"},{"type":"function","name":"getManifestCid","inputs":[{"name":"didKey","type":"bytes32","internalType":"bytes32"}],"outputs":[{"name":"","type":"string","internalType":"string"}],"stateMutability":"view"},{"type":"function","name":"owner","inputs":[],"outputs":[{"name":"","type":"address","internalType":"address"}],"stateMutability":"view"},{"type":"function","name":"pendingOwner","inputs":[],"outputs":[{"name":"","type":"address","internalType":"address"}],"stateMutability":"view"},{"type":"function","name":"renounceOwnership","inputs":[],"outputs":[],"stateMutability":"nonpayable"},{"type":"function","name":"setManifestCid","inputs":[{"name":"didKey","type":"bytes32","internalType":"bytes32"},{"name":"manifestCid","type":"string","internalType":"string"}],"outputs":[],"stateMutability":"nonpayable"},{"type":"function","name":"setManifestCidsBatch","inputs":[{"name":"didKeys","type":"bytes32[]","internalType":"bytes32[]"},{"name":"manifestCids","type":"string[]","internalType":"string[]"}],"outputs":[],"stateMutability":"nonpayable"},{"type":"function","name":"transferOwnership","inputs":[{"name":"newOwner","type":"address","internalType":"address"}],"outputs":[],"stateMutability":"nonpayable"},{"type":"event","name":"ManifestCidDeleted","inputs":[{"name":"didKey","type":"bytes32","indexed":true,"internalType":"bytes32"},{"name":"writer","type":"address","indexed":true,"internalType":"address"}],"anonymous":false},{"type":"event","name":"ManifestCidSet","inputs":[{"name":"didKey","type":"bytes32","indexed":true,"internalType":"bytes32"},{"name":"manifestCid","type":"string","indexed":false,"internalType":"string"},{"name":"writer","type":"address","indexed":true,"internalType":"address"}],"anonymous":false},{"type":"event","name":"ManifestCidsBatchDeleted","inputs":[{"name":"didKeys","type":"bytes32[]","indexed":false,"internalType":"bytes32[]"},{"name":"writer","type":"address","indexed":true,"internalType":"address"}],"anonymous":false},{"type":"event","name":"ManifestCidsBatchSet","inputs":[{"name":"didKeys","type":"bytes32[]","indexed":false,"internalType":"bytes32[]"},{"name":"manifestCids","type":"string[]","indexed":false,"internalType":"string[]"},{"name":"writer","type":"address","indexed":true,"internalType":"address"}],"anonymous":false},{"type":"event","name":"OwnershipTransferStarted","inputs":[{"name":"previousOwner","type":"address","indexed":true,"internalType":"address"},{"name":"newOwner","type":"address","indexed":true,"internalType":"address"}],"anonymous":false},{"type":"event","name":"OwnershipTransferred","inputs":[{"name":"previousOwner","type":"address","indexed":true,"internalType":"address"},{"name":"newOwner","type":"address","indexed":true,"internalType":"address"}],"anonymous":false},{"type":"error","name":"ArrayMismatch","inputs":[]},{"type":"error","name":"InvalidCid","inputs":[]},{"type":"error","name":"ManifestNotFound","inputs":[]},{"type":"error","name":"OwnableInvalidOwner","inputs":[{"name":"owner","type":"address","internalType":"address"}]},{"type":"error","name":"OwnableUnauthorizedAccount","inputs":[{"name":"account","type":"address","internalType":"address"}]}],"bytecode":{"object":"0x608060405234801561000f575f5ffd5b50335f73ffffffffffffffffffffffffffffffffffffffff168173ffffffffffffffffffffffffffffffffffffffff1603610081575f6040517f1e4fbdf700000000000000000000000000000000000000000000000000000000815260040161007891906101cc565b60405180910390fd5b6100908161009660201b60201c565b506101e5565b60015f6101000a81549073ffffffffffffffffffffffffffffffffffffffff02191690556100c9816100cc60201b60201c565b50565b5f5f5f9054906101000a900473ffffffffffffffffffffffffffffffffffffffff169050815f5f6101000a81548173ffffffffffffffffffffffffffffffffffffffff021916908373ffffffffffffffffffffffffffffffffffffffff1602179055508173ffffffffffffffffffffffffffffffffffffffff168173ffffffffffffffffffffffffffffffffffffffff167f8be0079c531659141344cd1fd0a4f28419497f9722a3daafe3b4186f6b6457e060405160405180910390a35050565b5f73ffffffffffffffffffffffffffffffffffffffff82169050919050565b5f6101b68261018d565b9050919050565b6101c6816101ac565b82525050565b5f6020820190506101df5f8301846101bd565b92915050565b611417806101f25f395ff3fe608060405234801561000f575f5ffd5b506004361061009c575f3560e01c8063c801ad4f11610064578063c801ad4f1461011e578063c81ac0421461013a578063cc7976cd14610156578063e30c397814610172578063f2fde38b146101905761009c565b80633734fa70146100a0578063715018a6146100bc57806379ba5097146100c65780638da5cb5b146100d0578063c549e2f5146100ee575b5f5ffd5b6100ba60048036038101906100b59190610a39565b6101ac565b005b6100c46102c8565b005b6100ce6102db565b005b6100d8610369565b6040516100e59190610ac3565b60405180910390f35b61010860048036038101906101039190610b0f565b610390565b6040516101159190610baa565b60405180910390f35b61013860048036038101906101339190610b0f565b610431565b005b610154600480360381019061014f9190610c1f565b6104f2565b005b610170600480360381019061016b9190610cd1565b6105ad565b005b61017a610726565b6040516101879190610ac3565b60405180910390f35b6101aa60048036038101906101a59190610d79565b61074e565b005b6101b46107fa565b5f5f90505b82829050811015610273575f60025f8585858181106101db576101da610da4565b5b9050602002013581526020019081526020015f2080546101fa90610dfe565b905003610233576040517f0e10978d00000000000000000000000000000000000000000000000000000000815260040160405180910390fd5b60025f84848481811061024957610248610da4565b5b9050602002013581526020019081526020015f205f6102689190610979565b8060010190506101b9565b503373ffffffffffffffffffffffffffffffffffffffff167fe177163b135e8453b1f8c16c10e8b196723927a713fd7c49c6cb48117c7d167783836040516102bc929190610ea6565b60405180910390a25050565b6102d06107fa565b6102d95f610881565b565b5f6102e46108b1565b90508073ffffffffffffffffffffffffffffffffffffffff16610305610726565b73ffffffffffffffffffffffffffffffffffffffff161461035d57806040517f118cdaa70000000000000000000000000000000000000000000000000000000081526004016103549190610ac3565b60405180910390fd5b61036681610881565b50565b5f5f5f9054906101000a900473ffffffffffffffffffffffffffffffffffffffff16905090565b606060025f8381526020019081526020015f2080546103ae90610dfe565b80601f01602080910402602001604051908101604052809291908181526020018280546103da90610dfe565b80156104255780601f106103fc57610100808354040283529160200191610425565b820191905f5260205f20905b81548152906001019060200180831161040857829003601f168201915b50505050509050919050565b6104396107fa565b5f60025f8381526020019081526020015f20805461045690610dfe565b90500361048f576040517f0e10978d00000000000000000000000000000000000000000000000000000000815260040160405180910390fd5b60025f8281526020019081526020015f205f6104ab9190610979565b3373ffffffffffffffffffffffffffffffffffffffff16817f8f1e606c5ed85e8219efdaa41e730a40903ebabab38120ea71ebbc0bb98fe5b860405160405180910390a350565b6104fa6107fa565b5f8282905003610536576040517fb2c3052000000000000000000000000000000000000000000000000000000000815260040160405180910390fd5b818160025f8681526020019081526020015f2091826105569291906110b9565b503373ffffffffffffffffffffffffffffffffffffffff16837f6d951fefaa4b1aa8b524d6c329c768f2e65a0ed5dee73751d76c4a57b572382784846040516105a09291906111c0565b60405180910390a3505050565b6105b56107fa565b8181905084849050146105f4576040517fb7c1140d00000000000000000000000000000000000000000000000000000000815260040160405180910390fd5b5f5f90505b848490508110156106cb575f83838381811061061857610617610da4565b5b905060200281019061062a91906111ee565b905003610663576040517fb2c3052000000000000000000000000000000000000000000000000000000000815260040160405180910390fd5b82828281811061067657610675610da4565b5b905060200281019061068891906111ee565b60025f88888681811061069e5761069d610da4565b5b9050602002013581526020019081526020015f2091826106bf9291906110b9565b508060010190506105f9565b503373ffffffffffffffffffffffffffffffffffffffff167f997669c441e1f9af6a5b6df60b9d91db7d3a8d038da23e44cb8167edfb5565968585858560405161071894939291906113a8565b60405180910390a250505050565b5f60015f9054906101000a900473ffffffffffffffffffffffffffffffffffffffff16905090565b6107566107fa565b8060015f6101000a81548173ffffffffffffffffffffffffffffffffffffffff021916908373ffffffffffffffffffffffffffffffffffffffff1602179055508073ffffffffffffffffffffffffffffffffffffffff166107b5610369565b73ffffffffffffffffffffffffffffffffffffffff167f38d16b8cac22d99fc7c124b9cd0de2d3fa1faef420bfe791d8c362d765e2270060405160405180910390a350565b6108026108b1565b73ffffffffffffffffffffffffffffffffffffffff16610820610369565b73ffffffffffffffffffffffffffffffffffffffff161461087f576108436108b1565b6040517f118cdaa70000000000000000000000000000000000000000000000000000000081526004016108769190610ac3565b60405180910390fd5b565b60015f6101000a81549073ffffffffffffffffffffffffffffffffffffffff02191690556108ae816108b8565b50565b5f33905090565b5f5f5f9054906101000a900473ffffffffffffffffffffffffffffffffffffffff169050815f5f6101000a81548173ffffffffffffffffffffffffffffffffffffffff021916908373ffffffffffffffffffffffffffffffffffffffff1602179055508173ffffffffffffffffffffffffffffffffffffffff168173ffffffffffffffffffffffffffffffffffffffff167f8be0079c531659141344cd1fd0a4f28419497f9722a3daafe3b4186f6b6457e060405160405180910390a35050565b50805461098590610dfe565b5f825580601f1061099657506109b0565b601f0160209004905f5260205f20906109af91906109b3565b5b50565b5f5b808211156109cb578281015f90556001016109b5565b505090565b5f5ffd5b5f5ffd5b5f5ffd5b5f5ffd5b5f5ffd5b5f5f83601f8401126109f9576109f86109d8565b5b8235905067ffffffffffffffff811115610a1657610a156109dc565b5b602083019150836020820283011115610a3257610a316109e0565b5b9250929050565b5f5f60208385031215610a4f57610a4e6109d0565b5b5f83013567ffffffffffffffff811115610a6c57610a6b6109d4565b5b610a78858286016109e4565b92509250509250929050565b5f73ffffffffffffffffffffffffffffffffffffffff82169050919050565b5f610aad82610a84565b9050919050565b610abd81610aa3565b82525050565b5f602082019050610ad65f830184610ab4565b92915050565b5f819050919050565b610aee81610adc565b8114610af8575f5ffd5b50565b5f81359050610b0981610ae5565b92915050565b5f60208284031215610b2457610b236109d0565b5b5f610b3184828501610afb565b91505092915050565b5f81519050919050565b5f82825260208201905092915050565b8281835e5f83830152505050565b5f601f19601f8301169050919050565b5f610b7c82610b3a565b610b868185610b44565b9350610b96818560208601610b54565b610b9f81610b62565b840191505092915050565b5f6020820190508181035f830152610bc28184610b72565b905092915050565b5f5f83601f840112610bdf57610bde6109d8565b5b8235905067ffffffffffffffff811115610bfc57610bfb6109dc565b5b602083019150836001820283011115610c1857610c176109e0565b5b9250929050565b5f5f5f60408486031215610c3657610c356109d0565b5b5f610c4386828701610afb565b935050602084013567ffffffffffffffff811115610c6457610c636109d4565b5b610c7086828701610bca565b92509250509250925092565b5f5f83601f840112610c9157610c906109d8565b5b8235905067ffffffffffffffff811115610cae57610cad6109dc565b5b602083019150836020820283011115610cca57610cc96109e0565b5b9250929050565b5f5f5f5f60408587031215610ce957610ce86109d0565b5b5f85013567ffffffffffffffff811115610d0657610d056109d4565b5b610d12878288016109e4565b9450945050602085013567ffffffffffffffff811115610d3557610d346109d4565b5b610d4187828801610c7c565b925092505092959194509250565b610d5881610aa3565b8114610d62575f5ffd5b50565b5f81359050610d7381610d4f565b92915050565b5f60208284031215610d8e57610d8d6109d0565b5b5f610d9b84828501610d65565b91505092915050565b7f4e487b71000000000000000000000000000000000000000000000000000000005f52603260045260245ffd5b7f4e487b71000000000000000000000000000000000000000000000000000000005f52602260045260245ffd5b5f6002820490506001821680610e1557607f821691505b602082108103610e2857610e27610dd1565b5b50919050565b5f82825260208201905092915050565b5f5ffd5b82818337505050565b5f610e568385610e2e565b93507f07ffffffffffffffffffffffffffffffffffffffffffffffffffffffffffffff831115610e8957610e88610e3e565b5b602083029250610e9a838584610e42565b82840190509392505050565b5f6020820190508181035f830152610ebf818486610e4b565b90509392505050565b5f82905092915050565b7f4e487b71000000000000000000000000000000000000000000000000000000005f52604160045260245ffd5b5f819050815f5260205f209050919050565b5f6020601f8301049050919050565b5f82821b905092915050565b5f60088302610f5b7fffffffffffffffffffffffffffffffffffffffffffffffffffffffffffffffff82610f20565b610f658683610f20565b95508019841693508086168417925050509392505050565b5f819050919050565b5f819050919050565b5f610fa9610fa4610f9f84610f7d565b610f86565b610f7d565b9050919050565b5f819050919050565b610fc283610f8f565b610fd6610fce82610fb0565b848454610f2c565b825550505050565b5f5f905090565b610fed610fde565b610ff8818484610fb9565b505050565b5f5b8281101561101e576110135f828401610fe5565b600181019050610fff565b505050565b601f82111561107157828211156110705761103d81610eff565b61104683610f11565b61104f85610f11565b602086101561105c575f90505b80830161106b82840382610ffd565b505050505b5b505050565b5f82821c905092915050565b5f6110915f1984600802611076565b1980831691505092915050565b5f6110a98383611082565b9150826002028217905092915050565b6110c38383610ec8565b67ffffffffffffffff8111156110dc576110db610ed2565b5b6110e68254610dfe565b6110f1828285611023565b5f601f83116001811461111e575f841561110c578287013590505b611116858261109e565b86555061117d565b601f19841661112c86610eff565b5f5b828110156111535784890135825560018201915060208501945060208101905061112e565b86831015611170578489013561116c601f891682611082565b8355505b6001600288020188555050505b50505050505050565b828183375f83830152505050565b5f61119f8385610b44565b93506111ac838584611186565b6111b583610b62565b840190509392505050565b5f6020820190508181035f8301526111d9818486611194565b90509392505050565b5f5ffd5b5f5ffd5b5f5ffd5b5f5f8335600160200384360303811261120a576112096111e2565b5b80840192508235915067ffffffffffffffff82111561122c5761122b6111e6565b5b602083019250600182023603831315611248576112476111ea565b5b509250929050565b5f82825260208201905092915050565b5f819050919050565b5f82825260208201905092915050565b5f6112848385611269565b9350611291838584611186565b61129a83610b62565b840190509392505050565b5f6112b1848484611279565b90509392505050565b5f5ffd5b5f5ffd5b5f5ffd5b5f5f833560016020038436030381126112e2576112e16112c2565b5b83810192508235915060208301925067ffffffffffffffff82111561130a576113096112ba565b5b6001820236038313156113205761131f6112be565b5b509250929050565b5f602082019050919050565b5f61133f8385611250565b93508360208402850161135184611260565b805f5b8781101561139657848403895261136b82846112c6565b6113768682846112a5565b955061138184611328565b935060208b019a505050600181019050611354565b50829750879450505050509392505050565b5f6040820190508181035f8301526113c1818688610e4b565b905081810360208301526113d6818486611334565b90509594505050505056fea26469706673582212203e39a0fdddf120cefc1fa6fce02c0a5543f83f27d067163ae39fe4fd2ca829c164736f6c63430008210033","linkReferences":{}},"methodIdentifiers":{"acceptOwnership()":"79ba5097","deleteManifestCid(bytes32)":"c801ad4f","deleteManifestCidsBatch(bytes32[])":"3734fa70","getManifestCid(bytes32)":"c549e2f5","owner()":"8da5cb5b","pendingOwner()":"e30c3978","renounceOwnership()":"715018a6","setManifestCid(bytes32,string)":"c81ac042","setManifestCidsBatch(bytes32[],string[])":"cc7976cd","transferOwnership(address)":"f2fde38b"},"id":1}