{"abi":[{"type":"receive","stateMutability":"payable"},{"type":"function","name":"claimAndRestore","inputs":[{"name":"claimHelperAddr","type":"address","internalType":"address"},{"name":"originalSingleton","type":"address","internalType":"address"},{"name":"governor","type":"address","internalType":"address"},{"name":"proposalId","type":"uint256","internalType":"uint256"}],"outputs":[],"stateMutability":"nonpayable"}],"bytecode":{"object":"0x6080604052348015600e575f5ffd5b506104298061001c5f395ff3fe608060405260043610610021575f3560e01c8063318c75871461002c57610028565b3661002857005b5f5ffd5b348015610037575f5ffd5b50610052600480360381019061004d9190610287565b610054565b005b835f5f6101000a81548173ffffffffffffffffffffffffffffffffffffffff021916908373ffffffffffffffffffffffffffffffffffffffff1602179055505f8273ffffffffffffffffffffffffffffffffffffffff1663fe0d94c160e01b836040516024016100c491906102fa565b604051602081830303815290604052907bffffffffffffffffffffffffffffffffffffffffffffffffffffffff19166020820180517bffffffffffffffffffffffffffffffffffffffffffffffffffffffff838183161783525050505060405161012e9190610365565b5f604051808303815f865af19150503d805f8114610167576040519150601f19603f3d011682016040523d82523d5f602084013e61016c565b606091505b50509050806101b0576040517f08c379a00000000000000000000000000000000000000000000000000000000081526004016101a7906103d5565b60405180910390fd5b835f5f6101000a81548173ffffffffffffffffffffffffffffffffffffffff021916908373ffffffffffffffffffffffffffffffffffffffff1602179055505050505050565b5f5ffd5b5f73ffffffffffffffffffffffffffffffffffffffff82169050919050565b5f610223826101fa565b9050919050565b61023381610219565b811461023d575f5ffd5b50565b5f8135905061024e8161022a565b92915050565b5f819050919050565b61026681610254565b8114610270575f5ffd5b50565b5f813590506102818161025d565b92915050565b5f5f5f5f6080858703121561029f5761029e6101f6565b5b5f6102ac87828801610240565b94505060206102bd87828801610240565b93505060406102ce87828801610240565b92505060606102df87828801610273565b91505092959194509250565b6102f481610254565b82525050565b5f60208201905061030d5f8301846102eb565b92915050565b5f81519050919050565b5f81905092915050565b8281835e5f83830152505050565b5f61033f82610313565b610349818561031d565b9350610359818560208601610327565b80840191505092915050565b5f6103708284610335565b915081905092915050565b5f82825260208201905092915050565b7f436c61696d206661696c656400000000000000000000000000000000000000005f82015250565b5f6103bf600c8361037b565b91506103ca8261038b565b602082019050919050565b5f6020820190508181035f8301526103ec816103b3565b905091905056fea26469706673582212201acc2323d0851c182c565172e5ad12ee2f68b953a39254e865f27f2ee6a058e164736f6c63430008210033","linkReferences":{}},"methodIdentifiers":{"claimAndRestore(address,address,address,uint256)":"318c7587"},"id":0}